:020000040800F2
:10000000C8280020350F00088D0F00088D0F00084C
:100010008D0F00088D0F00088D0F000800000000F4
:100020000000000000000000000000008D0F00082C
:100030008D0F000800000000E904000839050008E1
:100040008D0F00088D0F00088D0F00088D0F000820
:100050008D0F00088D0F00088D0F00088D0F000810
:100060008D0F00088D0F00088D0F00088D0F000800
:100070008D0F00088D0F00088D0F00088D0F0008F0
:100080008D0F00088D0F00088D0F00088D0F0008E0
:100090008D0F00088D0F00088D0F00088D0F0008D0
:1000A0008D0F00088D0F00088D0F00088D0F0008C0
:1000B0008D0F00088D0F00088D0F00088D0F0008B0
:1000C0008D0F00088D0F00088D0F00088D0F0008A0
:1000D0008D0F00088D0F0008A90C00088D0F000877
:1000E0008D0F00088D0F00088D0F00088D0F000880
:1000F0008D0F00088D0F00088D0F00088D0F000870
:100100008D0F00088D0F00088D0F00088D0F00085F
:100110008D0F00088D0F00088D0F00088D0F00084F
:100120008D0F00088D0F00088D0F00088D0F00083F
:100130008D0F00088D0F00088D0F00088D0F00082F
:100140008D0F00088D0F00088D0F00088D0F00081F
:100150008D0F00088D0F00088D0F00088D0F00080F
:100160008D0F00088D0F00088D0F00088D0F0008FF
:100170008D0F00088D0F00088D0F00088D0F0008EF
:100180008D0F00088D0F000870B584B0684601F02F
:1001900003F81F4B0098186003F0EAFC00221D4B87
:1001A0001D4E03F05BFD00221C4B04460D4603F080
:1001B0007FFE00221A4B03F051FD03F061FF10A3F4
:1001C000D3E9002330602946204603F071FE002267
:1001D000134B144E03F042FD03F052FF124B29461D
:1001E000186009A3D3E90023204603F061FE002232
:1001F0000B4B03F033FD03F043FF306004B070BDE0
:10020000000000000094C14000000000882A614105
:10021000840000200000F43F8800002000002240FD
:100220000000E03F8C0000209000002084B001908E
:10023000019B93B10A4B1A6800210391039B9A42D8
:1002400005D9039B01330393039B9342F9D3019B8D
:10025000013B0193019B002BEFD104B0704700BF1D
:100260008C00002084B00190019B93B10A4B1A6866
:1002700000210391039B9A4205D9039B0133039309
:10028000039B9342F9D3019B013B0193019B002BFC
:10029000EFD104B0704700BF90000020124B1B78D4
:1002A0001BB9124B1B7803B900B9704770B50446EF
:1002B00000F024F80E4B0F4D1A6892F8381092F89F
:1002C00039606B5C23EA06036B5433B90A4992F830
:1002D0003A500B7823EA05030B70146300F010F812
:1002E000BDE8704001F098BA000F0020980D002082
:1002F000040F0020F40E0020F00E002072B67047AC
:1003000062B6704772B60E48FF210170002080F37C
:1003100009880C48016881F308880B4801210170A5
:100320000A484FF08051016062B6FEE707484FF07F
:1003300080510160704705484FF08051016070475F
:1003400022ED00E0940000209A0D002004ED00E072
:10035000F0B5144C83B00121082000F069FF00259E
:1003600020466946022740F60E0601238DF8043028
:100370008DF806508DF807508DF80570009602F044
:1003800093F94FF470736946204600938DF804503A
:100390008DF8077002F088F93146204602F0D8F94E
:1003A00003B0F0BD000C024030B5012183B0022043
:1003B00000F03EFF4FF480750023022201246946BD
:1003C000064800958DF804408DF805208DF806301C
:1003D0008DF8073002F068F903B030BD0008024024
:1003E000B0B110B504464FF480710A4802F0B0F97C
:1003F0004FF48C70FFF71AFF4FF48071054802F03C
:10040000A5F94FF48C70FFF711FF013CEBD110BD43
:10041000704700BF0008024010B5074C4FF400724F
:100420002046002103F000FF04F50073034A23F087
:100430000703136010BD00BF980000209400002047
:10044000704700BF704700BF704700BF704700BFD4
:10045000704700BF043222F00702F0B5134642F89D
:10046000080C42F8201C4FF012374FF003364FF0C3
:1004700002354FF001344FF011304FF0103142F897
:10048000107C42F8146C42F8185C42F81C4C42F89C
:10049000240C42F8281C4FF0807CDFF840E042F842
:1004A00004CC4FF009374FF008364FF007354FF0C6
:1004B00006344FF005304FF0043142F83C0C42F85E
:1004C0000CEC42F82C7C42F8306C42F8345C42F878
:1004D000384C43F8401D1846F0BD00BF3D2C0008C5
:1004E000704700BF704700BF72B6EFF3098028B1B4
:1004F000203880E8F00F0C49096808600B480C4967
:100500000A78027008480B490A680260106890E88F
:10051000F00F203080F309884EF0040E7FF0020EB9
:1005200062B6704770470000040F0020F40D0020F1
:10053000A00D0020E80E002008B572B600B5FFF748
:10054000DDFE084A137801331370FFF7D9FE01F07E
:100550003BF800F0B9FF5DF804EB4EF0040E62B614
:1005600008BD00BF000F0020084A0949094B0138A7
:1005700010600A6822F07F420A601A6842F00502A1
:100580001A601A6842F002021A60704714E000E034
:1005900020ED00E010E000E0028A0B89F0B592B295
:1005A000CF888E88044622F440523A4348890D464B
:1005B00089892282A289334392B2034322F4B05242
:1005C00022F00C029BB21343A381A38A9BB223F4B3
:1005D00040730B4385B0A382684600F0DDFD1D4BE0
:1005E0009C4228D003F580639C4224D0029AA389C0
:1005F000A18913F4004F2B6802EB820214BF5B0049
:100600009B0002EB8202B2FBF3F0134AA2FB00351F
:100610006D096423090405FB13034FEA05150CD487
:100620001B013233A2FB0323C3F343132B439BB2BF
:10063000238105B0F0BD039AD9E7D9003231A2FB7E
:100640000131C1F3421242EA05039BB2238105B096
:10065000F0BD00BF001001401F85EB51838929B90F
:1006600023F400531B041B0C838170479BB243F49B
:1006700000538381704700BFC1F308018180704738
:1006800010B401F01F04C1F342110123012903FA40
:1006900004F30FD002290CBF103014302AB90268BD
:1006A00010BC22EA030303607047026810BC1343C6
:1006B000036070470C30F1E70388194214BF012032
:1006C00000207047C1F3421210B4012301F01F044F
:1006D000012A03FA04F315D0022A0CBF028A828A87
:1006E00092B21340028892B24BB10123090A03FA75
:1006F00001F10A4214BF1846002010BC704718468A
:1007000010BC7047828992B21340EBE7090A0123BB
:1007100003FA01F1C94389B201807047F8B5104B63
:100720001D789DB90F460646FFF7E8FD0D4B1C6886
:1007300084B161680C4A26810526196065602670BF
:10074000E260FFF7DDFD3D702046F8BD10230B7021
:100750000020F8BDFFF7D4FD72233B702046F8BDA2
:10076000000F0020C41F0020144C00082DE9F041A8
:10077000984C247888B0A4B91746974A0646107852
:1007800040B93278052A13D00E9A0123137008B0AD
:10079000BDE8F0810E9A0D232046137008B0BDE825
:1007A000F0810E9A02230020137008B0BDE8F0819A
:1007B00027F07F0202F0FF081AB107F07F074FF021
:1007C00001088DE80A00FFF799FD9DE80A00032F54
:1007D00042D8DFE807F0382D1702328911EA020506
:1007E00000F0E080B8F1010F02D122EA0502328167
:1007F0007A4B1B689D85FFF783FD0E9A00232846E0
:100800001370C4E7328931EA02042CD1B8F1010F28
:1008100002D122EA01023281704B1B689985009156
:10082000FFF76EFD00990E9A002308461370AEE79D
:10083000328931EA020500F09A80B8F1010F04BF55
:100840000A433281D4E732890A4275D1B8F1010FE7
:1008500004BF0A433281DFE7FFF752FD0E9A6F2390
:100860001370002093E75D4CADF81C1021680696CC
:1008700091F834200B63002542F0200381F83430D6
:1008800081F835507368059103AA4FF0020E049564
:1008900003938A628DF81EE003B15A60726091F88A
:1008A00038204F4D91F839E0AB5C23EA0E03AB548E
:1008B00033B94C4A91F83A10137823EA01031370C4
:1008C000FFF71EFD00F0A8FFFFF718FD236893F85F
:1008D0003550C5B10499039A002483F835400029A6
:1008E00073D00A6002B15160059A0024946283F8C3
:1008F0003440FFF705FD022D0E9A0CBF0E230A238C
:100900002046137043E7B8F1010F9C8D09D1032FE6
:10091000A2D8DFE807F00D0D0202338923EA0403B1
:100920003381FFF7EDFC0E9A0023204613702EE76B
:10093000338923433381F4E7284CADF81C10216838
:10094000069691F834200B6342F02002002381F8D0
:10095000342081F835307568059103AA8DF81E3072
:10096000049303958A62002D98D06A6096E71B4C29
:10097000ADF81C102168049591F8342081F83550A9
:1009800042F0200281F834207568069603AA4FF0E1
:10099000010E0B63059103958A628DF81EE0002D10
:1009A000E3D17BE70D4CADF81C102168049591F85C
:1009B000342081F8355042F0200281F834207568E7
:1009C000069603AA4FF0030EE3E7069C6260002A36
:1009D00089D189E7000F0020980D0020040F002026
:1009E000F40E0020F00E00202DE9F84F0478052CBD
:1009F00004D001221A700020BDE8F88F1D4617466A
:100A000088460446FFF77AFC0646002F75D0012F72
:100A10006CD1218948EA010121816268002A00F035
:100A20008880DFF828E1DFF828819EF800C00021E7
:100A300089460846937C032B4FD8DFE803F04944EE
:100A40001C02178A23893B401AD113681A46002BCF
:100A5000F0D1002977D13046FFF752FCB9F1000FF1
:100A60006BD1FFF74BFC2489FFF74AFC00232B7066
:100A70002046BDE8F88F138A278933EA0707E4D1B7
:100A8000976897F834A038630AF0DF0ABB8587F8C7
:100A9000350087F834A0BAF1000F33D04FF0000BC7
:100AA00092E80804BAF1000F3CD0CAF800300BB14C
:100AB000C3F804A0136892689062BBF1000FC5D020
:100AC0004FF00109C2E72789138ABB43BDD0D7E79E
:100AD000138A27893B42B8D1D2E789BB3046FFF75A
:100AE0000FFC6F232B700020BDE8F88FFFF708FC88
:100AF00071232B700020BDE8F88F218921EA0801BD
:100B000021818AE797F838A097F8393018F80A1049
:100B100097F83A700B43012108F80A304CEA070CA9
:100B20008B46BDE7D7687B60002BC4D0C3F804A018
:100B3000C1E73046FFF7E4FB93E700F06DFE90E776
:100B40008EF800C0CAE78EF800C084E7F00E0020DF
:100B5000F40E0020F8B5124C5021204600F054FE4F
:100B60002146002301F8103B0E4A0F48616004F152
:100B7000200704F1300604F1400567616662656391
:100B8000237484F8203084F8303084F84030636473
:100B9000E260E261E262E263E2640460F8BD00BF29
:100BA000A40D0020144C0008C41F002042680368F4
:100BB00032B1136003B15A60836800229A627047B1
:100BC000C1684B60002BF6D1F6E700BF2DE9F0437A
:100BD000012187B04FF4003000F038FB204F214D49
:100BE0000121084600F024FB00244FF002080126F2
:100BF0004FF00C0938466946CDF800908DF8048016
:100C00008DF805808DF806408DF8076001F04CFDE9
:100C100041463846072201F09DFD38460722032150
:100C200001F098FD4FF4E133284602A90293ADF894
:100C30000C40ADF80E40ADF81040ADF81440ADF8E2
:100C40001290FFF7A9FC3246284640F22551FFF7E3
:100C500017FD31462846FFF701FD07B0BDE8F083D8
:100C6000000002400044004030B583B000230193EF
:100C7000019BC35C9BB10446019BE55C0948802154
:100C8000FFF71AFD0028F9D029460648FFF7F4FCC3
:100C9000019B01330193019BE35C002BECD103B07A
:100CA00030BD00BF00440040F8B51D4C40F2255156
:100CB0002046FFF707FD00B9F8BD40F22551204658
:100CC000FFF724FDA388DBB2A3F14102192A1F46D6
:100CD00017D90D2B17D8134E3368002B0ADD124D90
:100CE000002415F8011F0E48FFF7C6FC33680134D5
:100CF000A342F6DC0023394609483360FFF7BCFC09
:100D000007E02033DBB2074A084C1168481C6354E3
:100D1000106040210248FFF7CFFC0028F9D0F8BD51
:100D2000004400407C0000209B0200209C02002028
:100D300030B585B0B0B930238DF80F300E240DEBEF
:100D40000405013480215648FFF7B6FC0028F9D08D
:100D500015F9011F524889B2FFF78EFC0F2CF0D114
:100D600005B030BD4F4B5049A3FB0024E40804EB11
:100D70008402A0EB42028A5C8DF80F20002CDDD0AB
:100D8000A3FB0452D20802EB8202A4EB4204474ABE
:100D90000C5D8DF80E40A2FB004252096FD0A3FB00
:100DA0000254E40804EB8404A2EB4404404A0C5DC2
:100DB0008DF80D40A2FB004292096ED0A3FB0254B5
:100DC000E40804EB8404A2EB44043A4A0C5D8DF879
:100DD0000C40A2FB0042520B5DD0A3FB0254E4087E
:100DE00004EB8404A2EB4404334D0A5D8DF80B2020
:100DF0004209A5FB0242D2094BD0A3FB0254E408EE
:100E000004EB8404A2EB44042C4A0C5D8DF80A40E8
:100E1000A2FB0042920C3AD0A3FB0254E40804EB7C
:100E20008404A2EB4404264A0C5D8DF80940A2FB21
:100E30000042920D29D0A3FB0254E40804EB840481
:100E4000A2EB44041F4A0C5D8DF80840A2FB00424F
:100E5000520E18D0A3FB0243DB0803EB8303A2EB83
:100E60004303194ACB5C8DF80730400AA2FB0023EC
:100E7000DB0906D0CB5C8DF8063005245FE70D2436
:100E80005DE706245BE7072459E7082457E70924B0
:100E900055E70A2453E70B2451E70C244FE700BF22
:100EA00000440040CDCCCCCC184C00081F85EB5141
:100EB000D34D62105917B7D1C55A7C0A83DE1B4344
:100EC0006BCA5F6B893BE655834B04002DE9F0410B
:100ED000DFF85C8005460F46FF2620211448FFF707
:100EE000EBFB012806D02E7020211148FFF7E4FB10
:100EF0000128F8D1B8F80440E4B2FF2C2C70ECD0F3
:100F00000A2CEAD01FB90D2C0ED00135E5E780215F
:100F10000748FFF7D1FB0028F9D021460448FFF726
:100F2000ABFB2C780D2CF0D100232B70BDE8F081A9
:100F30000044004008B50F480F4B984207D2C24307
:100F40001A4422F0030204320C4903F0D3F80C488F
:100F50000C494FF000028842B8BF40F8042BFADB7E
:100F6000DFF82400016841F470010160BDE8084029
:100F700000F0BEB8000000207C000020885000086F
:100F80007C000020C820002088ED00E008B5322059
:100F9000FFF726FA4FF4FA70FFF764F9F7E700BF9E
:100FA000F0B50E4C206887B0A8B10027E5686168ED
:100FB000237A268A019105F18042013A01EB8202EF
:100FC0000397029500930496002101F0A1FD54F8C7
:100FD000140F0028EAD107B0F0BD00BF00000020C8
:100FE00000B583B00DF10701082001F039FE264A53
:100FF0009DF807301060002B3BD1002002F070FB01
:10100000224B1860002002F06BFB214B0DF1070111
:1010100018600020FFF782FB1E4A9DF80730106021
:10102000E3B90DF107010020FFF778FB1A4A9DF89C
:10103000073010604BB11948FFF716FE9DF8070006
:10104000FFF776FE1648FFF70FFE0A21154801F05C
:101050000FFC154B186003B05DF804FB0F48FFF759
:1010600003FE9DF80700FFF763FE0D48FFF7FCFD48
:10107000D7E70E48FFF7F8FD9DF80700FFF758FE89
:101080000748FFF7F1FDB8E7840D0020EC0B0020C6
:10109000940D0020900D0020880D0020444C000885
:1010A000404C0008D40A0020F00B0020284C000817
:1010B00010B572B60B4C206802F086FA2068FFF774
:1010C000D3FD0948FFF7D0FDFFF78AFFFFF768FF60
:1010D0000648FFF749FA62B6FF20BDE8104001F06C
:1010E00075BD00BF64000020404C000840D10C00DA
:1010F00008B501F043FBFFF747F8FFF767FD01F084
:10110000F9FD00F053FCFFF74FF9FFF721F91B48F9
:10111000FFF7AAFD00F0A0FC194B186800F008FDCD
:101120001848FFF7A1FD02E03220FFF79BF801F01D
:10113000F9F90028F8D01448FFF796FD00F00CF9F3
:101140000121082000F074F8104B114A1968114869
:1011500041F080711960196841F080611960196867
:1011600041F080511960196841F0804119600523F0
:10117000002101F083FC00F0F7F9FEE7584C00086D
:101180008C0D0020704C0008844C0008000C0240BC
:10119000800D0020B110000810B4214CA36803F0AA
:1011A0000C03042B1AD0082B1BD01E4B03601C4AC7
:1011B0001D499468C4F303140C5DE34043609468D4
:1011C000C4F382240C5D23FA04F48460926810BC9A
:1011D000C2F342328A5CD340C3607047134B036052
:1011E000E5E76368616813F4800F636818BF0F4C0C
:1011F00001F03F020CBF0B49B4FBF2F1C3F38813BB
:1012000008BFB1FBF2F101FB03F2054B5B68C3F3CE
:10121000014301335B00B2FBF3F30360C7E700BF98
:10122000003802400024F4006C00002000127A0014
:1012300029B9054A136B23EA000010637047024B7B
:101240001A6B1043186370470038024029B9054AE9
:10125000136C23EA000010647047024B1A6C1043B1
:10126000186470470038024070B5114E114D9EB0A1
:101270000DF10F041E20FFF711F811A80021FFF750
:1012800025FE04AA11A9032000F074FC0A48FFF708
:10129000EBFC04A8FFF7E8FC04A9306802F0AEFA02
:1012A00028680094002382220121FFF75FFAE1E71A
:1012B000940D0020880D0020A44C000870B5194D35
:1012C000194E8EB000210DF10302286802F02EFAAB
:1012D00004461648FFF7C8FC1548FFF7C5FC204632
:1012E000FFF7C2FC1148FFF7BFFC204600F000FCEE
:1012F00001A800F01DFC0F4901A803F04BFA0028DB
:10130000E0D00A48FFF7B0FC0B48FFF7ADFC01A89E
:10131000FFF7AAFC01220DF1030311463068FFF725
:1013200063FBCFE7940D0020900D00206C4C00086B
:10133000BC4C0008D84C0008DC4C000810B5054C2B
:10134000FEF7DCFF236801332360FEF7D9FFFFF7C8
:101350007DF8F5E79C0D0020F0B589B0FFF75CF84B
:101360003F49404A4048414B414F424E424D002484
:101370000C60147004701C604049414B414A424863
:101380003C7034702C60414F414E424D1C605C609B
:101390000C701470214604704FF4E7623E483C70B4
:1013A00034602C6002F040FF21464FF480723B48CD
:1013B0003B4C02F039FF3B4B03F5DC6143F8084C32
:1013C00043F8443C58338B42354AF7D1324B364FC1
:1013D000364EC3F8302700254FF4F062C3F8F456B8
:1013E00033483B602946356002F01EFF314B2A46E8
:1013F00003F5ED6003F8182C43F8044C43F8143C53
:10140000183398424FF000052549F3D1284B2A4A5A
:1014100083F86857C3F86C57C3F87C171360FFF75D
:1014200099FB01F01DF901F06FFA244A019203249F
:1014300080204FF6FF7329460290009303953F23C7
:1014400002F5FE7204941E4801F062FB0DF11F02CA
:101450001C493F2001F0C8FBFEF7F2FF09B0F0BDC8
:10146000080F0020000F0020980D00209C0D002088
:10147000800E00209A0D0020780E0020990D00208B
:10148000F40E0020F00E0020F40D0020A00D00202E
:10149000E80E0020040F00208C180020C81F002038
:1014A000144C0008E41800207C0E0020F80D0020E9
:1014B0000C11002024110020FC0E00200C0F002035
:1014C0003D130008EC4D00081C4B1B78012B00D08D
:1014D000704770B582B0FEF711FF194A13783BBB15
:1014E000184B1B78FBB9184A184B1278184C9A5CA9
:1014F0001849A45C184D1B5D0978184E184C03EB75
:10150000C203DBB2994255F82320337022600AD01F
:10151000144CD16B2368019001310133D1632360F6
:10152000FEF709FF019802B0BDE87040FEF7E8BE83
:10153000013BDBB21370002BF5D1D1E79A0D0020EF
:10154000000F0020980D0020F00E0020EC4C000849
:10155000F40E0020F40D0020C81F0020A00D002074
:10156000E80E0020780E00200E4B1B7803B1704768
:1015700070B40D4A0D4B12780D499A5C0D4D895C83
:101580000D4E5B5C0D4C0E480E4903EBC203DBB203
:10159000337055F82320237070BC02600A60FEF798
:1015A000B1BE00BF9A0D0020F00E0020EC4C0008E8
:1015B000F40E0020C81F0020A00D0020F40D002014
:1015C000E80E0020040F0020F8B5FEF78BFFFEF7B1
:1015D00095FE234A136801331360FEF791FE214BF9
:1015E0001B78012B00D0F8BD1F490A78012AFAD0D8
:1015F00003D3022A18BF00230B701C4B1C6894F8FD
:1016000036303F2BEFD01A4E1A4DFEF777FE236B84
:101610005A1EEBB12263DAB994F8343013F0370272
:1016200004D003F0C80384F8343001221B0784F887
:1016300035200DD494F8381094F8392015F801E0CD
:10164000337894F83A704EEA02023B436A5433709E
:101650006469FEF755FE94F836303F2BD5D1F8BDBE
:10166000080F00209A0D0020740E0020F80D0020B5
:10167000F00E0020F40E0020704700BFF0B50746C2
:101680002D48BD7A2D4C465DBD194FF0000EED7A08
:10169000405D00EBC600C0B254F8205095F83440CD
:1016A00085F8353024EA020213076962C5F830E094
:1016B00085F8342028D595F8391095F838203A4423
:1016C000D37A23EA0103D3727BB32C6ADCB122689C
:1016D00095F838E095F83AC095F839608AB1F64344
:1016E000F6B26FEA0C0C02EB0E01CB7A3340CB72F0
:1016F0001BB9937A03EA0C03937254F8042F002A5F
:10170000F1D1EF61F0BDF0BDDFF838E00C4C1EF810
:101710000620237895F8391095F83AC00A434CEA28
:1017200003030EF806202370C7E795F83A20BB7A2A
:1017300023EA0203BB72C8E7EC4C0008C81F002074
:10174000F00E0020F40E002030B4114B114C1B6839
:1017500093F83820D861024493F83910D57A294398
:10176000D172817A93F83A200A43827293F8381042
:1017700093F83900625C22EA0002625432B9064AE8
:1017800093F83A10137823EA0103137030BC7047C2
:10179000040F0020F40E0020F00E002010B490F88A
:1017A000382090F839400A44D37A23EA0403D372EC
:1017B0002BB990F83A208B7A23EA02038B7210BC83
:1017C000704700BF70B40A6890F8385090F83A60DB
:1017D00090F8394072B1E443E4B2F6435019C37A49
:1017E0002340C37213B9937A3340937251F8042F94
:1017F000002AF3D170BC704700238372C0F80B300D
:10180000C0F80F30704700BF29B101398AB20132E8
:10181000002102F009BD704770B582B0FEF76EFD81
:10182000154B1B7813BB154B1B78FBB9144A154B92
:101830001278154C9A5C1549A45C154D1B5D09780E
:10184000144E154C03EBC203DBB2994255F823202A
:10185000337022600AD0114CD16B236801900131A2
:101860000133D1632360FEF761FD019802B0BDE84A
:101870007040FEF745BD00BF000F0020980D00200E
:10188000F00E0020EC4C0008F40E0020F40D0020B7
:10189000C81F0020A00D0020E80E0020780E0020B8
:1018A0002DE9F8431F4606460D469146BDF82880AF
:1018B000FEF724FD364B1C68002C63D062691A6069
:1018C000FEF71EFD0998606006F00702F10808980F
:1018D00025600123002503FA01FEE06093402D48B6
:1018E00084F8372084F8381084F83AE084F83930E6
:1018F000206584F836602046C4F80890A4F810806B
:10190000678284F8345084F83550256384F83B505E
:10191000E5612562A5626562E56365642564A56489
:10192000E5646565FEF7DCFDFEF7E8FC1A4B43F85D
:101930002640FEF7E5FC2046FEF784FDFEF7DEFCC0
:10194000164AA5611368636103B19C61DFF858E032
:1019500094F83860124F134D9EF8001094F83AC076
:101960002B78146094F83920BC5D4CEA01012243C5
:1019700001338EF80010BA552B70FEF7C1FC002021
:10198000BDE8F883FEF7BCFC4220BDE8F88300BF49
:101990007C0E0020144C0008C81F0020F80D002009
:1019A000F40E0020800E0020F00E0020F0B5012182
:1019B00083B002AC0846FFF73BFC4FF4004701211F
:1019C0000220FFF735FC44F8087D00230122214660
:1019D00002251F488DF806308DF807308DF8042059
:1019E0004FF480768DF8055000F05EFE21461948D0
:1019F000009600F059FE21461648009500F054FE6E
:101A00003946134800F0A4FE3146124800F0A0FE0B
:101A10002946104800F09AFE08244FF400410C4873
:101A200000F096FE4FF480710A4800F08FFE4FF4EC
:101A30008071084800F08CFE013CEED1022105487F
:101A400000F084FE0221034800F082FE03B0F0BDE6
:101A50000000024000040240F0B5012187B0224F8F
:101A6000224D4FF48020FFF7F1FB01210220FFF708
:101A7000DFFB00240223012638464FF4406269460A
:101A80008DF804308DF8053000928DF806408DF801
:101A9000076000F009FE384607220A2100F05AFECE
:101AA000384607220B2100F055FE0C2328464FF440
:101AB000614202A9ADF812300292ADF80C40ADF8C7
:101AC0000E40ADF81040ADF81440FEF765FD32460B
:101AD000284640F22551FEF7D3FD31462846FEF751
:101AE000BDFD07B0F0BD00BF00040240004800404B
:101AF00030B583B000230193019BC35C9BB10446C6
:101B0000019BE55C09488021FEF7D6FD0028F9D04D
:101B100029460648FEF7B0FD019B01330193019B66
:101B2000E35C002BECD103B030BD00BF00480040A7
:101B300070B50F4E0446FF2520210D48FEF7BCFD71
:101B4000012806D0257020210948FEF7B5FD01289F
:101B5000F8D1B388DBB2FF2B2370EDD00A2BEBD08A
:101B60000D2B01D00134E7E70023237070BD00BFC7
:101B700000480040F0B500F0F005202D144685B077
:101B800003460A4678D017D8002D66D0102D30D1E4
:101B90007F488049804A00682060103B08681188AF
:101BA00060602022A4F80710E270042B16D8DFE84A
:101BB00003F0C0BEB6B0AB00E02D3ED0F02D18D182
:101BC000764B744A1868764B2060106860609A887B
:101BD0001868A0602023A281E370E371204602F020
:101BE0000FFC704B221819889B782152937005B016
:101BF000F0BD01A918460A2202F07AFA204602F046
:101C0000FFFB694D06460FCDA719A05128682D7915
:101C100079601536BA60FB6001A938613D75A0197D
:101C200002F050FB5F4A03461188927801802046FB
:101C30009A70FFF719F805B0F0BD5C4B5C4A186864
:101C40001D791288206020232571E2806371237240
:101C500004F1090002F05AFBC0E74D484E49006804
:101C600009882060013BA4F80310042BB6D8DFE8F4
:101C700003F0403A251F170045484E4E464900687C
:101C80002060098830686060203BE570A4F8071088
:101C9000062BA3D8DFE803F079776A5F5D5B4F001E
:101CA000454A10689188927960602181A27295E717
:101CB000424B18689B88606023818FE7404B414905
:101CC00018681E790D88C4F807002023312060733E
:101CD0001146E672A580A3712373A37304F10F006C
:101CE00002F014FB7AE7384B18681B7960602372A6
:101CF00074E736492023086860601146237204F1B6
:101D0000090002F003FB69E7314B03CBA060E160FF
:101D100064E7304B1A889B782281A3725EE72E4AD3
:101D2000106891889279A060A181A27356E72B4A2E
:101D3000F6E72B4AF4E72B4B03CB2023E160A060AE
:101D4000114604F11000E37302F0E0FA46E7264B77
:101D5000F2E71F4BF0E71F49202309882181A37276
:101D6000114604F10B0002F0D1FA37E71F4B186857
:101D70009B88A06020251146A381A57304F10F0064
:101D800002F0C4FA2AE7154BF1E7154BEFE700BF65
:101D9000184E0008004E000828500008FC4D0008AE
:101DA000044E00086C4C0008884E00080C4E0008D9
:101DB000144E00086C4E0008404E0008384E0008D3
:101DC000304E00082C4E0008244E00081C4E00081F
:101DD000644E0008604E0008584E0008504E00083F
:101DE000484E0008804E0008784E0008704E0008EB
:101DF0002DE9F043BFB007460021322231A802F09E
:101E000013FA3846954902F0C5FC38B30AAD2A46A4
:101E100000211420FFF7AEFE9148FEF725FF28466B
:101E2000FEF722FF00230193019B3EAA134413F8FF
:101E3000D03C002B00F0D181019B3EAA134413F843
:101E4000D04C88488021FEF737FC0028F9D0214685
:101E50008448FEF711FC019B0133E4E738468249D0
:101E600002F098FC28B30AAD2A460021F020FFF7C3
:101E700081FE7B48FEF7F8FE2846FEF7F5FE0023BC
:101E80000593059B3EAA134413F8D03CA3B1059BD0
:101E90003EAA134413F8D04C72488021FEF70CFC84
:101EA0000028F9D021466F48FEF7E6FB059B013379
:101EB000E6E73FB0BDE8F0836A4F24ACFF2620215F
:101EC0006848FEF7F9FB012806D0267020216548F6
:101ED000FEF7F2FB0128F8D1BB88DBB2FF2B2370A1
:101EE000EDD00A2BEBD00D2B01D00134E7E7002316
:101EF00023705E485B4CFEF7B7FE24A8FEF7B4FEE5
:101F00005B48FEF7B1FE5B4931A802F043FC007864
:101F1000FEF70EFF5848FEF7A7FE564931A802F01B
:101F200039FC06460028C4D12A4624A92020FFF700
:101F300021FE4B48FEF798FE2846FEF795FE0996CF
:101F4000099B3EAA134413F8D03CC3B1099B3EAA97
:101F5000134413F8D06C43488021FEF7ADFB0028F2
:101F6000F9D031463F48FEF787FB099B01330993BF
:101F7000099B3EAA134413F8D03C002BE6D117AEC0
:101F800037464FF0FF0820213648FEF795FB012821
:101F900007D087F8008020213248FEF78DFB01280A
:101FA000F7D1A388DBB2FF2B3B70ECD00A2BEAD031
:101FB0000D2B01D00137E6E74FF000082F4887F8D6
:101FC0000080FEF751FE3046FEF74EFE2A462C49B1
:101FD0002120FFF7CFFD2248FEF746FE2846FEF7F8
:101FE00043FECDF82080089B3EAA134413F8D03C52
:101FF000C3B1089B3EAA134413F8D07C1948802132
:10200000FEF75AFB0028F9D039461648FEF734FB94
:10201000089B01330893089B3EAA134413F8D03C55
:10202000002BE6D137464FF0FF0820210D48FEF780
:1020300043FB012807D087F8008020210948FEF7DC
:102040003BFB0128F7D1A388DBB2FF2B3B70ECD020
:102050000A2BEAD00D2B15D00137E6E7A04E000879
:10206000A44C000800480040A44E0008604F00083F
:10207000704F0008D84C00086C4C0008884F0008CE
:102080009C4F00084FF000088E4887F80080FEF74C
:10209000EBFD3046FEF7E8FD2A468B492220FFF78C
:1020A00069FD8A48FEF7E0FD2846FEF7DDFDCDF824
:1020B0001C80079B3EAA134413F8D03CC3B1079B76
:1020C0003EAA134413F8D07C81488021FEF7F4FA2D
:1020D0000028F9D039467E48FEF7CEFA079B013337
:1020E0000793079B3EAA134413F8D03C002BE6D17C
:1020F00037464FF0FF0820217548FEF7DDFA01282A
:1021000007D087F8008020217148FEF7D5FA012812
:10211000F7D1A388DBB2FF2B3B70ECD00A2BEAD0BF
:102120000D2B01D00137E6E74FF00008694887F82A
:102130000080FEF799FD3046FEF796FD2A4641469F
:102140000220FFF717FD6148FEF78EFD2846FEF7D7
:102150008BFDCDF81880069B3EAA134413F8D03CA3
:10216000C3B1069B3EAA134413F8D06C5848802193
:10217000FEF7A2FA0028F9D031465548FEF77CFA5E
:10218000069B01330693069B3EAA134413F8D03CEA
:10219000002BE6D131AEFF2720214D48FEF78CFA07
:1021A000012806D0377020214948FEF785FA01281A
:1021B000F8D1A388DBB2FF2B3370EDD00A2BEBD024
:1021C0000D2B01D00136E7E7002343483370FEF7BB
:1021D0004BFD31A8FEF748FD9FE617AEDFF8F09003
:1021E00034464FF0FF0820213948FEF765FA0128F0
:1021F00007D084F8008020213548FEF75DFA0128D9
:10220000F7D1B9F80430DBB2FF2B2370EBD00A2BE7
:10221000E9D00D2B01D00134E5E74FF000082F483D
:1022200084F80080FEF720FD3046FEF71DFD2A46AB
:102230002B492420FFF79EFC2448FEF715FD284675
:10224000FEF712FDCDF80080009B3EAA134413F860
:10225000D03CC3B1009B3EAA134413F8D04C1C4899
:102260008021FEF729FA0028F9D021461848FEF708
:1022700003FA009B01330093009B3EAA134413F81A
:10228000D03C002BE6D1DFF8489034464FF0FF08F1
:1022900020210F48FEF710FA012807D084F80080AB
:1022A00020210B48FEF708FA0128F7D1B9F80430CD
:1022B000DBB2FF2B2370EBD00A2BE9D00D2B11D012
:1022C0000134E5E7B04F0008C44F0008A44C0008F3
:1022D00000480040E84F0008544F0008AC4E00088A
:1022E000C44E0008002323708548864CFEF7BCFCD2
:1022F0003046FEF7B9FC844931A802F04BFA80461B
:1023000000287FF4ABAD2A4680492520FFF732FC38
:102310007F48FEF7A9FC2846FEF7A6FCCDF8108002
:10232000049B3EAA134413F8D03CC3B1049B3EAABD
:10233000134413F8D08C73488021FEF7BDF90028B0
:10234000F9D041466F48FEF797F9049B0133049397
:10235000049B3EAA134413F8D03C002BE6D1B046B0
:102360004FF0FF0920216748FEF7A6F9012807D0A2
:1023700088F8009020216348FEF79EF90128F7D1E4
:10238000A388DBB2FF2B88F80030EBD00A2BE9D012
:102390000D2B02D008F10108E4E74FF000095D4879
:1023A00088F80090FEF760FC3046FEF75DFC2A4698
:1023B00059492620FFF7DEFB5548FEF755FC284615
:1023C000FEF752FCCDF80C90039B3EAA134413F881
:1023D000D03CC3B1039B3EAA134413F8D08C4948A8
:1023E0008021FEF769F90028F9D041464548FEF7FB
:1023F00043F9039B01330393039B3EAA134413F851
:10240000D03C002BE6D1B0464FF0FF0920213D48DB
:10241000FEF752F9012807D088F8009020213948AA
:10242000FEF74AF90128F7D1A388DBB2FF2B88F821
:102430000030EBD00A2BE9D00D2B02D008F10108B7
:10244000E4E74FF00009354888F80090FEF70CFCEF
:102450003046FEF709FC2A4649460220FFF78AFB70
:102460002B48FEF701FC2846FEF7FEFBCDF808904E
:10247000029B3EAA134413F8D03CC3B1029B3EAA70
:10248000134413F8D08C1F488021FEF715F900285B
:10249000F9D041461B48FEF7EFF8029B0133029347
:1024A000029B3EAA134413F8D03C002BE6D10DF159
:1024B000C4084FF0FF0920211248FEF7FDF801285B
:1024C00007D088F8009020210E48FEF7F5F8012883
:1024D000F7D1A388DBB2FF2B88F80030EBD00A2BB2
:1024E000E9D00D2B02D008F10108E4E700230C48E5
:1024F00088F80030FEF7B8FB31A8FEF7B5FBFAE626
:10250000D04E000800480040D84C0008E44E0008B7
:10251000A44C0008084F00081C4F0008404F00085A
:10252000544F000870B59CB002AA44490120FFF73F
:1025300021FB4348FEF798FB02A8FEF795FB00231A
:102540000193019B1CAA134413F8683C8BB1019BB7
:102550001CAA134413F8684C3A488021FEF7ACF8E3
:102560000028F9D021463748FEF786F8019B013351
:10257000E6E7344E0FACFF2520213248FEF79CF8E9
:10258000012806D0257020212E48FEF795F8012855
:10259000F8D1B388DBB2FF2B2370EDD00A2BEBD040
:1025A0000D2B01D00134E7E7002327482370FEF705
:1025B0005BFB0FA8FEF758FB24490FA802F0EAF8CE
:1025C00058B3204E0FACFF2520211E48FEF774F8AB
:1025D000012806D0257020211A48FEF76DF8012841
:1025E000F8D1B388DBB2FF2B2370EDD00A2BEBD0F0
:1025F0000D2B01D00134E7E7002323701448FEF7C8
:1026000033FB0FA8FEF730FB0FA8124902F0C2F807
:10261000003018BF01201CB070BD0F490FA802F098
:10262000B9F810B10548FFF7E3FB0C48FEF71CFBB7
:102630000FA8FEF719FB00201CB070BDA44E0008C7
:10264000A44C000800480040FC4F0008D84C00088B
:10265000684F00082C5000080C5000081C5000085F
:1026600070B50E4C78212046FFF7CEF80C4A0D4B82
:10267000146004F1180604F1300504F1480004F177
:10268000600100226660E5616063E1646266636127
:10269000E3626364E365636770BD00BFFC0D002007
:1026A000840E0020144C000800222DE9F047134648
:1026B000D1F800E001274FF0030C04E00133102BA8
:1026C00002F1020229D007FA03F434EA0E05F5D12B
:1026D000D0F800800E790CFA02F5ED4308EA0508FF
:1026E000C0F80080D0F8009006FA02FA013E4AEAEB
:1026F0000909012E0CFA02F8C0F800900FD9C5683C
:10270000CC7925EA0805C560C568944001332C439F
:10271000102BC46002F10202D5D1BDE8F0878668B3
:1027200091F805903540856086688D7909FA02F93F
:1027300049EA06068660466826EA0404446046685C
:1027400005FA03F4A4B234434460D8E70183704728
:1027500041837047CB0800EB830001F0070110B400
:102760008900046A0F238B4024EA03030362036A8F
:1027700010BC8A4042EA030101627047364B374879
:102780001A68002142F001021A6099601A6822F06A
:10279000847222F480321A6058601A6882B022F47F
:1027A00080221A60D960009101911A6842F4803247
:1027B0001A601A4603E0009BB3F5A06F09D01368B6
:1027C00003F400330193009B01330093019B002B22
:1027D000F1D0214B1B6813F4003318BF0123019380
:1027E000019B012B05D01E4B4FF000629A6002B096
:1027F0007047194B1B491A6C1B4842F080521A64EF
:102800000A6842F480420A609A689A609A6842F4C0
:1028100000429A609A6842F4A0529A6058601A681E
:1028200042F080721A601A4611680B4B8901FBD581
:102830000E4A40F2056111609A6822F003029A6024
:102840009A6842F002029A601A46936803F00C03F9
:10285000082BFAD1C7E700BF00380240103000242F
:1028600000ED00E00070004008544007003C0240CA
:102870002DE9F843204B93F80090B9F1000F2AD1CD
:102880001E4F88460646FDF739FD3C6834B3636841
:102890003B60FDF735FDFDF731FD194B1D6815B3A4
:1028A0002A681A60FDF72CFD06EB88010222154B01
:1028B0006E60EE602E61A960A5F81480A5F81690F0
:1028C0002046A4F80890656022706361FEF794FFCB
:1028D0002046BDE8F8830020BDE8F883FDF710FD31
:1028E0002046BDE8F8833B6863603C60FDF708FD67
:1028F0002846BDE8F88300BF000F0020FC0E002032
:10290000EC0E0020144C000810B5094C6021204644
:10291000FEF77AFF234604F1180143F8301B054AFD
:10292000A36104F1480000212063A164146010BD7C
:10293000880E0020EC0E00202DE9F0410546FDF741
:10294000DDFCFF2D074667D0424E56F82540002C8F
:102950006BD0012C78D094F838203F4994F8390096
:102960008B5C23EA00038B54002B4DD0E16911B13D
:102970002046FEF713FF216A11B12046FEF722FF21
:10298000A06A08B1FEF712F9DFF8D08098F800309D
:102990000022FF2B18BF0133226384F8342084F80F
:1029A0003520384618BF88F80030FDF7A9FCFEF73F
:1029B00063FEFDF7A3FC98F80030284A074603BBE6
:1029C0002046FDF741FD2649002346F825300B78C7
:1029D000A269013B0B706369002A31D053616369BE
:1029E0009A61204B204A19686161384622651C6053
:1029F000FDF786FC1D4B1B78012B1CD00020BDE889
:102A0000F081013B1370DBE7194A94F83A10137810
:102A100023EA01031370A9E7164B0E4E1B6893F8C7
:102A2000365056F82540002C93D13846FDF768FC07
:102A30004320BDE8F081FEF7EFFE0020BDE8F08105
:102A40000D499A610B60CCE73846FDF759FC3D20F3
:102A5000BDE8F081C81F0020F40E0020980D002072
:102A6000800E00207C0E0020144C00089A0D0020DF
:102A7000F00E0020040F0020F80D00202DE9F04397
:102A800085B01D46074688469146FDF737FC1D4B2D
:102A90001C7854B91C4E56F825306BB1FDF730FC4C
:102AA0002824204605B0BDE8F083FDF729FC3C242E
:102AB000204605B0BDE8F083012346F82530FDF738
:102AC0001FFC23464A4641463846FDF7C3FC0294A4
:102AD000014601940094234622462846FEF7E0FE74
:102AE000074630B9094B1B78012BDAD1FEF794FE6B
:102AF000D7E7FDF703FC46F82540FDF701FC3C460F
:102B0000CFE700BF000F0020C81F00209A0D002053
:102B10002DE9F04F85B01D46074688469146BDF821
:102B200038A0BDF84860FDF7E9FB254B1C785CB97F
:102B3000DFF894B05BF825306BB1FDF7E1FB28249A
:102B4000204605B0BDE8F08FFDF7DAFB3C242046B7
:102B500005B0BDE8F08F01234BF82530FDF7D0FB21
:102B600006F00303032B19D033464A464146384644
:102B7000FDF770FC119B0193109B02960146009398
:102B80000F9A53462846FEF78BFE064678B90D4B42
:102B90001B78012BD4D1FEF73FFED1E7109B002B11
:102BA000E2D09A0021460F9801F03EFBDCE7FDF7EA
:102BB000A5FB002334464BF82530FDF7A1FBBFE70A
:102BC000000F00209A0D0020C81F0020054B1B7825
:102BD0000BB1402070473F2801D13E207047FFF7DE
:102BE000ABBE00BF000F002070B5114B1B78144620
:102BF00013B11223137070BD05460E46FDF77EFB20
:102C0000FF2D0BD00B4B53F8253063B1012B0AD0AD
:102C10001E65FDF775FB0023237070BD064B1B6816
:102C200093F83650EEE7FDF76BFB4323237070BD3E
:102C3000000F0020C81F0020040F002008B5064B1D
:102C40001868FDF705FC054B1B7803B108BDFF2094
:102C5000BDE80840FFF770BE040F0020000F002001
:102C6000F8B5204B1C7884BB0E460546FDF746FBA5
:102C7000FF2D01461ED01C4A52F825304BBB1B4B82
:102C80001C68012042F825004CB3084662681A60AF
:102C90002D02FDF735FB00270422154B227045F06D
:102CA000FF052046258167606361FEF7A5FD37704B
:102CB0002046F8BD0D4B1C68002CE6D10846FDF7F8
:102CC0001FFB042333700020F8BD10230B7000207D
:102CD000F8BDFDF715FB282333702046F8BD42F8F8
:102CE0002540EBE7000F0020C81F0020FC0E00204D
:102CF000144C00082DE9F04F012185B01020FEF79B
:102D000097FA0DF1100A012104204FF07808FEF720
:102D10008FFA01210820F74CDFF8E0B3F64FFEF7F9
:102D200087FA4AF8108D012500264FF00209514616
:102D300020468DF804508DF806608DF807608DF8F8
:102D40000590FFF7B1FC4FF42053514658460093CD
:102D5000FFF7AAFC514638460095FFF7A5FC5846F8
:102D60004FF40051FFF7F4FC29463846FFF7F0FC1A
:102D700058464FF40061FFF7EBFC0F20FDF772FAA5
:102D800029463846FFF7E2FC20460821FFF7E0FC21
:102D900020461021FFF7DCFC20462021FFF7D8FC5D
:102DA00020464021FFF7D4FC20464021FFF7CEFC0F
:102DB00020462021FFF7CAFC29463846FFF7C8FC09
:102DC00002A92046CDF808808DF80C508DF80E60D1
:102DD0008DF80F608DF80D90FFF766FC2846FDF723
:102DE00041FA29463846FFF7B1FC20460821FFF793
:102DF000AFFC20461021FFF7ABFC20462021FFF757
:102E0000A7FC20464021FFF7A3FC29463846FFF7E0
:102E10009FFC02A92046CDF808808DF80C508DF853
:102E20000E608DF80F608DF80D90FFF73DFC284681
:102E3000FDF718FA3220FDF715FA29463846FFF754
:102E400085FC20460821FFF783FC20461021FFF770
:102E50007FFC20462021FFF77BFC20464021FFF726
:102E600077FC20464021FFF771FC20462021FFF728
:102E70006DFC29463846FFF76BFC02A92046CDF8C9
:102E800008808DF80C508DF80E608DF80F608DF86D
:102E90000D90FFF709FC2846FDF7E4F9294638466E
:102EA000FFF754FC20460821FFF752FC2046102172
:102EB000FFF74EFC20462021FFF74AFC2046402128
:102EC000FFF746FC29463846FFF742FC02A9204698
:102ED000CDF808808DF80C508DF80E608DF80F60DD
:102EE0008DF80D90FFF7E0FB2846FDF7BBF929466A
:102EF0003846FFF72BFC20460821FFF729FC204627
:102F00001021FFF725FC20462021FFF721FC204659
:102F10004021FFF71DFC20464021FFF717FC20460B
:102F20002021FFF713FC29463846FFF711FC02A9C0
:102F30002046CDF808808DF80C508DF80E608DF885
:102F40000F608DF80D90FFF7AFFB2846FDF78AF96B
:102F500029463846FFF7FAFB20460821FFF7F8FB21
:102F600020461021FFF7F4FB20462021FFF7F0FB5D
:102F700020464021FFF7ECFB29463846FFF7E8FBE7
:102F800002A92046CDF808808DF80C508DF80E600F
:102F90008DF80F608DF80D90FFF786FB2846FDF742
:102FA00061F929463846FFF7D1FB20460821FFF793
:102FB000CFFB20461021FFF7CBFB20462021FFF757
:102FC000C7FB20464021FFF7C3FB29463846FFF7E1
:102FD000BFFB02A92046CDF808808DF80C508DF873
:102FE0000E608DF80F608DF80D90FFF75DFB2846A1
:102FF000FDF738F929463846FFF7A8FB2046082197
:10300000FFF7A6FB20461021FFF7A2FB2046202158
:10301000FFF79EFB20464021FFF79AFB2046202128
:10302000FFF794FB29463846FFF792FB02A920469A
:10303000CDF808808DF80C508DF80E608DF80F607B
:103040008DF80D90FFF730FB2846FDF70BF90520B2
:10305000FDF708F929463846FFF778FB2046082196
:10306000FFF776FB20461021FFF772FB2046202158
:10307000FFF76EFB20464021FFF76AFB2046202128
:10308000FFF764FB29463846FFF762FB02A920469A
:10309000CDF808808DF80C508DF80E608DF80F601B
:1030A0008DF80D90FFF700FB2846FDF7DBF8294669
:1030B0003846FFF74BFB20460821FFF749FB204627
:1030C0001021FFF745FB20462021FFF741FB20465A
:1030D0004021FFF73DFB20461021FFF737FB20463C
:1030E0000821FFF733FB29463846FFF731FB02A9D9
:1030F000204605E000100240000C0240000802409B
:10310000CDF808808DF80C508DF80E608DF80F60AA
:103110008DF80D90FFF7C8FA2846FDF7A3F80F20A9
:10312000FDF7A0F829463846FFF710FB2046082196
:10313000FFF70EFB20461021FFF70AFB2046202157
:10314000FFF706FB20464021FFF702FB29463846E1
:10315000FFF7FEFA02A92046CDF808808DF80C5042
:103160008DF80E608DF80F608DF80D90FFF79CFACA
:103170002846FDF777F829463846FFF7E7FA204654
:103180000821FFF7E5FA20461021FFF7E1FA204673
:103190002021FFF7DDFA20464021FFF7D9FA20462B
:1031A0002021FFF7D3FA20461021FFF7CFFA20465F
:1031B0000821FFF7CBFA29463846FFF7C9FA02A9DA
:1031C0002046CDF808808DF80C508DF80E608DF8F3
:1031D0000F608DF80D90FFF767FA2846FDF742F86B
:1031E0000F20FDF73FF829463846FFF7AFFA204693
:1031F0000821FFF7ADFA20461021FFF7A9FA204673
:103200002021FFF7A5FA20464021FFF7A1FA294621
:103210003846FFF79DFA02A92046CDF808808DF8C0
:103220000C508DF80E608DF80F608DF80D90FFF743
:103230003BFA2846FDF716F829463846FFF786FA86
:1032400020460821FFF784FA20461021FFF780FA74
:1032500020462021FFF77CFA20464021FFF778FA2C
:1032600020464021FFF772FA29463846FFF770FAE8
:1032700002A92046CDF808808DF80C508DF80E601C
:103280008DF80F608DF80D90FFF70EFA2846FCF7C9
:10329000E9FF0F20FCF7E6FF29463846FFF756FA0C
:1032A00020460821FFF754FA20461021FFF750FA74
:1032B00020462021FFF74CFA20464021FFF748FA2C
:1032C00029463846FFF744FA02A92046CDF808807F
:1032D0008DF80C508DF80E608DF80F608DF80D9004
:1032E000FFF7E2F92846FCF7BDFF29463846FFF70D
:1032F0002DFA20460821FFF72BFA20461021FFF770
:1033000027FA20462021FFF723FA20464021FFF725
:103310001FFA20462021FFF719FA20461021FFF757
:1033200015FA29463846FFF713FA02A920468DF808
:103330000D908DF80E608DF80F608DF80C50CDF863
:103340000880FFF7B1F92846FCF78CFF0F20FCF747
:1033500089FF05B0BDE8F08F2DE9F04F047885B006
:10336000002C00F02581DFF858A2002280469AF850
:10337000003001928146012670E0AB0700F1948095
:103380006F0700F198802D0703D508218A48FFF7C1
:10339000DDF901218948FFF7DBF9782500230222B6
:1033A00002A985488DF80E308DF80F308DF80D206C
:1033B0008DF80C600295FFF777F90120FCF752FFBA
:1033C00001217E48FFF7C2F908217B48FFF7C0F9C9
:1033D00010217948FFF7BCF920217748FFF7B8F9A9
:1033E00075484021FFF7B4F9E00773D4A1076CD406
:1033F000620765D4230703D508216F48FFF7A6F9B4
:1034000001216E48FFF7A4F900247822022302A9C3
:10341000694802928DF80D308DF80E408DF80F40FE
:103420008DF80C60FFF740F90120FCF71BFF9AF8BC
:103430000030019F624A0133DBB2202B07F1010704
:1034400014BF13701470FAB208BF234618F8024074
:10345000019208EB0209002C00F0AA80082B3ED054
:1034600058484FF40051FFF771F901215348FFF715
:103470006DF908215048FFF76BF910214E48FFF70E
:1034800067F920214C48FFF763F9250940214A4894
:10349000FFF75EF9EA077FF570AF40214648FFF776
:1034A00055F9AB077FF56CAF20214348FFF74EF984
:1034B0006F077FF568AF10213F48FFF747F962E7D4
:1034C00010213D48FFF742F994E720213A48FFF7E1
:1034D0003DF98DE740213848FFF738F986E7202489
:1034E0004FF400513748FFF733F901213348FFF714
:1034F0002DF908213048FFF72BF910212E48FFF74E
:1035000027F920212C48FFF723F940212A48FFF70B
:103510001FF940212848FFF719F901212748FFF733
:1035200017F9002502A978274FF0020B22488DF8E1
:103530000C6002978DF80E508DF80F508DF80DB07D
:10354000FFF7B2F80120FCF78DFE01211B48FFF7C1
:10355000FDF808211848FFF7FBF810211648FFF77F
:10356000F7F820211448FFF7F3F840211248FFF73D
:10357000EFF810211048FFF7E9F801210F48FFF795
:10358000E7F802A90C4802978DF80E508DF80F50FD
:103590008DF80DB08DF80C60FFF786F80120FCF770
:1035A00061FE631E13F0FF049AD199F8004057E7BB
:1035B00005B0BDE8F08F00BF00100240000C0240D3
:1035C00080000020000802402DE9F047404F414CA8
:1035D00082B082464FF400513F48FFF7B9F83846B1
:1035E0000121FFF7B3F820460821FFF7B1F8204684
:1035F0001021FFF7ADF820462021FFF7A9F820465B
:103600004021FFF7A5F838460121FFF7A1F8012571
:1036100000264FF0780969464FF002082046CDF8A1
:1036200000908DF804508DF806608DF807608DF8D5
:103630000580FFF739F82846FCF714FE294638467E
:10364000FFF784F820460821FFF782F82046102172
:10365000FFF77EF820462021FFF77AF82046402128
:10366000FFF776F820464021FFF770F829463846E4
:10367000FFF76EF869462046CDF800908DF80450AB
:103680008DF806608DF807608DF80580FFF70CF85F
:103690002846FCF7E7FD114B05201E70FCF7E2FD04
:1036A00069462046CDF800908DF804508DF80660EC
:1036B0008DF807608DF80580FEF7F6FF2846FCF7C9
:1036C000D1FD5046FFF748FE02B0BDE8F08700BFCD
:1036D000000C024000100240000802408000002060
:1036E00070B50F4B1E78A6B90546FCF707FE0D4BCB
:1036F0001C6884B162681A60FCF702FE01220A4B62
:1037000026812046656022706361FEF775F82046C9
:1037100070BD002070BDFCF7F3FD204670BD00BFFA
:10372000000F0020FC0E0020144C00082DE9F84387
:103730000378012B16D12E4B1B78002B4DD12D4C2D
:103740002678002E44D1054617468846FCF7D6FD5C
:103750006C6881465CB16E60FCF7D2FD3E7020461D
:10376000BDE8F883012313700020BDE8F883224EE2
:10377000336893F83420C3F8308042F0020283F8B3
:10378000354083F834202846FDF7DEFF4846FCF735
:10379000B7FDFEF741F8FCF7B1FD8046306890F8C0
:1037A000353013B3022B1DD02946FDF7F7FF0A234E
:1037B0003B7033680022404683F8342083F835207C
:1037C000DA611A625A62FCF79BFD2046BDE8F88375
:1037D0000D2111701846BDE8F883022313700020F4
:1037E000BDE8F8830E233B70E3E7446A3B70E0E7F3
:1037F000000F0020980D0020040F0020F8B503787A
:10380000012B02D001252846F8BD04460E46FCF7E0
:1038100075FDA57A074635B963688BB11425FCF7A9
:103820006FFD2846F8BD3146002302222046FDF7F1
:1038300025FF3846FCF764FD0025FDF7EDFFE2E7C4
:103840006660FCF75DFDDEE770B5104E104D90B080
:103850000DF10B041E20FCF721FD03A8FEF768F90B
:103860000C48FDF701FA03A8FDF7FEF90A48FDF739
:10387000FBF903A93068FFF7C1FF28680094002313
:1038800082220121FCF772FFE4E700BFEC0B00206D
:10389000900D0020385000086C4C000870B50F4E99
:1038A0000F4D82B00DF1070200213068FFF73EFF97
:1038B00004460C48FDF7D8F90B48FDF7D5F920462A
:1038C000FDF7D2F90748FDF7CFF901220DF1070303
:1038D00011462868FDF788F8E4E700BFEC0B0020EC
:1038E000880D00206C4C00084450000881F0004115
:1038F00002E000BF83F0004330B54FEA41044FEAD5
:10390000430594EA050F08BF90EA020F1FBF54EA6F
:10391000000C55EA020C7FEA645C7FEA655C00F00B
:10392000E2804FEA5454D4EB5555B8BF6D420CDDDC
:103930002C4480EA020281EA030382EA000083EA5F
:10394000010180EA020281EA0303362D88BF30BDFF
:1039500011F0004F4FEA01314FF4801C4CEA113155
:1039600002D0404261EB410113F0004F4FEA0333B4
:103970004CEA133302D0524263EB430394EA050F3F
:1039800000F0A780A4F10104D5F1200E0DDB02FAAE
:103990000EFC22FA05F2801841F1000103FA0EF242
:1039A000801843FA05F359410EE0A5F120050EF108
:1039B000200E012A03FA0EFC28BF4CF0020C43FA39
:1039C00005F3C01851EBE37101F0004507D54FF046
:1039D000000EDCF1000C7EEB00006EEB0101B1F596
:1039E000801F1BD3B1F5001F0CD349085FEA3000DC
:1039F0004FEA3C0C04F101044FEA445212F5800FE7
:103A000080F09A80BCF1004F08BF5FEA500C50F183
:103A1000000041EB045141EA050130BD5FEA4C0C66
:103A2000404141EB010111F4801FA4F10104E9D1EF
:103A300091F0000F04BF01460020B1FA81F308BFE6
:103A40002033A3F10B03B3F120020CDA0C3208DDB2
:103A500002F1140CC2F10C0201FA0CF021FA02F18D
:103A60000CE002F11402D8BFC2F1200C01FA02F1FD
:103A700020FA0CFCDCBF41EA0C019040E41AA2BF22
:103A800001EB0451294330BD6FEA04041F3C1CDAEA
:103A90000C340EDC04F11404C4F1200220FA04F00A
:103AA00001FA02F340EA030021FA04F345EA0301B4
:103AB00030BDC4F10C04C4F1200220FA02F001FA76
:103AC00004F340EA0300294630BD21FA04F02946F8
:103AD00030BD94F0000F83F4801306BF81F4801191
:103AE0000134013D4EE77FEA645C18BF7FEA655C04
:103AF00029D094EA050F08BF90EA020F05D054EAD6
:103B0000000C04BF1946104630BD91EA030F1EBFDA
:103B10000021002030BD5FEA545C05D140004941DE
:103B200028BF41F0004130BD14F580043CBF01F5D1
:103B3000801130BD01F0004545F0FE4141F47001B7
:103B40004FF0000030BD7FEA645C1ABF1946104692
:103B50007FEA655C1CBF0B46024650EA013406BF93
:103B600052EA033591EA030F41F4002130BD00BF52
:103B700090F0000F04BF0021704730B54FF480640F
:103B800004F132044FF000054FF0000150E700BF90
:103B900090F0000F04BF0021704730B54FF48064EF
:103BA00004F1320410F0004548BF40424FF00001DC
:103BB0003EE700BF42004FEAE2014FEA31014FEA1F
:103BC00002701FBF12F07F4393F07F4F81F060516E
:103BD000704792F0000F14BF93F07F4F704730B5DD
:103BE0004FF4607401F0004521F0004120E700BF70
:103BF00050EA010208BF704730B54FF000050AE0F7
:103C000050EA010208BF704730B511F0004502D5F7
:103C1000404261EB41014FF4806404F132045FEAF9
:103C2000915C3FF4DCAE4FF003025FEADC0C18BF9E
:103C300003325FEADC0C18BF033202EBDC02C2F194
:103C4000200300FA03FC20FA02F001FA03FE40EA26
:103C50000E0021FA02F11444C1E600BF70B54FF026
:103C6000FF0C4CF4E06C1CEA11541DBF1CEA135508
:103C700094EA0C0F95EA0C0F00F0DEF82C4481EA70
:103C8000030621EA4C5123EA4C5350EA013518BF90
:103C900052EA033541F4801143F4801338D0A0FB7D
:103CA00002CE4FF00005E1FB02E506F00042E0FB2A
:103CB00003E54FF00006E1FB03569CF0000F18BF30
:103CC0004EF0010EA4F1FF04B6F5007F64F54074D8
:103CD00004D25FEA4E0E6D4146EB060642EAC6216B
:103CE00041EA55514FEAC52040EA5E504FEACE2ED8
:103CF000B4F1FD0C88BFBCF5E06F1ED8BEF1004FDB
:103D000008BF5FEA500E50F1000041EB045170BD56
:103D100006F0004646EA010140EA020081EA03019A
:103D2000B4EB5C04C2BFD4EB0C0541EA045170BD96
:103D300041F480114FF0000E013C00F3AB8014F110
:103D4000360FDEBF002001F0004170BDC4F1000459
:103D5000203C35DA0C341BDC04F11404C4F12005DA
:103D600000FA05F320FA04F001FA05F240EA020035
:103D700001F0004221F0004110EBD37021FA04F66B
:103D800042EB06015EEA430E08BF20EAD37070BD25
:103D9000C4F10C04C4F1200500FA04F320FA05F084
:103DA00001FA04F240EA020001F0004110EBD37086
:103DB00041F100015EEA430E08BF20EAD37070BDF6
:103DC000C4F1200500FA05F24EEA020E20FA04F3CF
:103DD00001FA05F243EA020321FA04F001F000417E
:103DE00021FA04F220EA020000EBD3705EEA430EEF
:103DF00008BF20EAD37070BD94F0000F0FD101F01E
:103E00000046400041EB010111F4801F08BF013C56
:103E1000F7D041EA060195F0000F18BF704703F094
:103E20000046520043EB030313F4801F08BF013D1B
:103E3000F7D043EA0603704794EA0C0F0CEA1355D7
:103E400018BF95EA0C0F0CD050EA410618BF52EA91
:103E50004306D1D181EA030101F000414FF0000097
:103E600070BD50EA410606BF1046194652EA4306A5
:103E700019D094EA0C0F02D150EA013613D195EA19
:103E80000C0F05D152EA03361CBF104619460AD161
:103E900081EA030101F0004141F0FE4141F470016B
:103EA0004FF0000070BD41F0FE4141F4780170BD5B
:103EB00070B54FF0FF0C4CF4E06C1CEA11541DBFC0
:103EC0001CEA135594EA0C0F95EA0C0F00F0A7F8C2
:103ED000A4EB050481EA030E52EA03354FEA0131EF
:103EE00000F088804FEA03334FF0805545EA131302
:103EF00043EA12634FEA022245EA111545EA1065CA
:103F00004FEA00260EF000419D4208BF964244F160
:103F1000FD0404F5407402D25B084FEA3202B61A7F
:103F200065EB03055B084FEA32024FF480104FF453
:103F3000002CB6EB020E75EB030E22BFB61A7546C7
:103F400040EA0C005B084FEA3202B6EB020E75EB5A
:103F5000030E22BFB61A754640EA5C005B084FEAC2
:103F60003202B6EB020E75EB030E22BFB61A75468F
:103F700040EA9C005B084FEA3202B6EB020E75EB9A
:103F8000030E22BFB61A754640EADC0055EA060E5B
:103F900018D04FEA051545EA16754FEA06164FEA9E
:103FA000C30343EA52734FEAC2025FEA1C1CC0D14A
:103FB00011F4801F0BD141EA00014FF000004FF0D7
:103FC000004CB6E711F4801F04BF01430020B4F198
:103FD000FD0C88BFBCF5E06F3FF6AFAEB5EB030C50
:103FE00004BFB6EB020C5FEA500C50F1000041EB4D
:103FF000045170BD0EF0004E4EEA113114EB5C041A
:10400000C2BFD4EB0C0541EA045170BD41F48011EC
:104010004FF0000E013C90E645EA060E8DE60CEAF4
:10402000135594EA0C0F08BF95EA0C0F3FF43BAF11
:1040300094EA0C0F0AD150EA01347FF434AF95EAC8
:104040000C0F7FF425AF104619462CE795EA0C0FAC
:1040500006D152EA03353FF4FDAE1046194622E779
:1040600050EA410618BF52EA43067FF4C5AE50EA53
:1040700041047FF40DAF52EA43057FF4EBAE12E743
:104080004A0011D212F5001211D20DD56FF47873D7
:10409000B3EB62520ED44FEAC12343F0004343EA2C
:1040A000505323FA02F070474FF00000704750EA77
:1040B000013002D14FF0FF3070474FF000007047E1
:1040C000931E222B10D80A2A10B506D000230C46C6
:1040D000194400F06FFC204610BD0028F6DA2D23AD
:1040E0000B7040420123F2E700200870704700BFC8
:1040F000FFF7E6BF844641EA000313F003036DD1E6
:10410000403A41D351F8043B40F8043B51F8043B9A
:1041100040F8043B51F8043B40F8043B51F8043BA1
:1041200040F8043B51F8043B40F8043B51F8043B91
:1041300040F8043B51F8043B40F8043B51F8043B81
:1041400040F8043B51F8043B40F8043B51F8043B71
:1041500040F8043B51F8043B40F8043B51F8043B61
:1041600040F8043B51F8043B40F8043B51F8043B51
:1041700040F8043B51F8043B40F8043B51F8043B41
:1041800040F8043B403ABDD2303211D351F8043BE1
:1041900040F8043B51F8043B40F8043B51F8043B21
:1041A00040F8043B51F8043B40F8043B103AEDD290
:1041B0000C3205D351F8043B40F8043B043AF9D2E1
:1041C000043208D0D2071CBF11F8013B00F8013BB4
:1041D00001D30B8803806046704700BF082A13D3C1
:1041E0008B078DD010F003038AD0C3F10403D21AD9
:1041F000DB071CBF11F8013B00F8013B80D331F80D
:10420000023B20F8023B7BE7043AD9D3013A11F88C
:10421000013B00F8013BF9D20B7803704B784370F7
:104220008B7883706046704770B4840746D0541E04
:10423000002A41D0CDB2034602E0621EE4B3144628
:1042400003F8015B9A07F8D1032C2ED9CDB245EAC9
:1042500005250F2C45EA054519D903F1100226461C
:10426000103E0F2E42F8105C42F80C5C42F8085CDD
:1042700042F8045C02F11002F2D8A4F1100222F01C
:104280000F0204F00F041032032C13440DD91E4604
:104290002246043A032A46F8045BFAD8221F22F089
:1042A00003020432134404F003042CB1C9B21C44C9
:1042B00003F8011BA342FBD170BC704714460346B0
:1042C000C2E700BF41EA00039B0710B414D10B689A
:1042D000A3F1013222EA030212F0803F0CD10C1D3F
:1042E00040F8043B214654F8043BA3F1013222EA92
:1042F000030212F0803FF3D0034611F8012B184659
:1043000003F8012B002AF8D110BC704780EA0102A3
:10431000844612F0030F4FD111F0030F32D14DF844
:10432000044D11F0040F51F8043B0BD0A3F10132FE
:104330009A4312F0803F04BF4CF8043B51F8043B11
:1043400016D100BF51F8044BA3F101329A4312F089
:10435000803FA4F101320BD14CF8043BA24312F090
:10436000803F04BF51F8043B4CF8044BEAD023468D
:104370000CF8013B13F0FF0F4FEA3323F8D15DF83F
:10438000044B704711F0010F06D011F8012B0CF807
:10439000012B002A08BF704711F0020FBFD031F87F
:1043A000022B12F0FF0F16BF2CF8022B8CF8002006
:1043B00012F47F4FB3D1704711F8012B0CF8012B89
:1043C000002AF9D1704700BF000000000000000083
:1043D00000000000000000000000000000000000DD
:1043E00000000000000000000000000000000000CD
:1043F00000000000000000000000000000000000BD
:1044000090F800F06DE9024520F007016FF0000C14
:1044100010F0070491F820F040F049804FF00004BC
:104420006FF00700D1E9002391F840F000F1080097
:1044300082FA4CF2A4FA8CF283FA4CF3A2FA8CF3CF
:104440004BBBD1E9022382FA4CF200F10800A4FA36
:104450008CF283FA4CF3A2FA8CF3E3B9D1E904238A
:1044600082FA4CF200F10800A4FA8CF283FA4CF3C1
:10447000A2FA8CF37BB9D1E9062301F1200182FA7B
:104480004CF200F10800A4FA8CF283FA4CF3A2FA81
:104490008CF3002BC6D0002A04BF04301A4612BA8F
:1044A000B2FA82F2FDE8024500EBD2007047D1E992
:1044B000002304F00305C4F100004FEAC50514F021
:1044C000040F91F840F00CFA05F562EA05021CBFF2
:1044D00063EA050362464FF00004A9E72DE9F041C5
:1044E0004FF0010E744600254FF0FF362B198B421A
:1044F00000EB06070DD23F5D10F803C0BC452DD27E
:104500001D460124C6EB030E2B198B4200EB060758
:10451000F1D34FF00108C2F800E0444600254FF007
:10452000FF372B19994200EB070E0ED91EF804E055
:1045300010F803C0F44518D91D460124C7EB030841
:104540002B19994200EB070EF0D80137701C8742F7
:1045500024BFC2F800803846BDE8F0810CD04FF08F
:10456000010E2E4674467544C0E70CD04FF001088A
:104570002F4644464544D4E7744509BFA646013456
:104580001D460124B2E7444509BFA04601341D463B
:104590000124C6E72DE9F04FADF2144D164605464D
:1045A0008B461046194603AA1C46FFF797FF03AB3C
:1045B00081460DF20C4243F8044F9342FBD14CB1BB
:1045C000631E324604A812F8011B40F8213013F193
:1045D000FF33F8D203994A463144304600F080FA5E
:1045E000002871D109F1FF330093F318824601933B
:1045F00023468046544658469A4608EB0A073A1A1C
:104600000021284400F01CFA002858D1002F56D071
:10461000EB1904AA13F8013C52F823304BB124B132
:10462000039A934201D2C2EB0A039844002438460D
:10463000E3E74C4523460AF1FF3E38BF4B4673453E
:1046400013D208EB030216F803C0A85C84452A4481
:1046500006EB030106D02EE011F801CF12F8010F8E
:10466000844528D101337345F6D34C45009980F039
:104670008B80009B019808EB03020378A85C8342BF
:104680002A4440F08180019B06EB040B06E013F8FE
:1046900001ED12F8010D864504D161469B4501F1FB
:1046A000FF3CF4D101348C4270D8039C3846A044BE
:1046B000C4EB0A04A1E7C9F101029044B5E7002068
:1046C0000DF2144DBDE8F08FC9EB04034B4538BF24
:1046D0004B46013309F1FF38039306EB08035846B4
:1046E0004FF0000ACB4699460AEB04073A1A00211C
:1046F000284400F0A5F90028E1D1002FDFD0EB1904
:1047000004AA13F8013C52F82330A3BB611E8B4569
:1047100015D20AEB0B0216F80B3015F802E09E4595
:104720002A4406EB0B005B4606D027E010F801CFC9
:1047300012F801EFF44521D101338B42F6D3B8F1E1
:10474000FF3F11D00AEB080299F80010AB5C9942C8
:104750002A440FD14B4605E013F8010D12F8011D54
:10476000884207D1B342F7D105EB0A000DF2144D90
:10477000BDE8F08F039B9A443846B5E7CBF10102C0
:1047800092449A443846AFE749468BE705EB080068
:1047900096E700BF0378002B00F004812DE9F04F6D
:1047A00091F8008085B04446B8F1000F16D08646D7
:1047B00001F1010C012703E012F8014B6CB19446A2
:1047C0009C4214BF002707F001071EF8013F624614
:1047D000002BF1D19CF800300BBB17B105B0BDE840
:1047E000F08F0E46054641460130C6EB0C0400F042
:1047F000A9F9074698B1012CF0D02819874294BF37
:10480000C7EB000B4FF0010B1F2C0CD9234632468F
:1048100059463846FFF7BEFE05B0BDE8F08F0020D0
:1048200005B0BDE8F08F03AA21463046FFF756FEDB
:104830000399804602463144304600F051F9002881
:1048400058D108F1FF330193F318814605460093D0
:104850005846B2466619321A0021384400F0F0F882
:104860000028DCD1002EDAD0C845434638BF4B467D
:104870009C4212D95A191AF80310B85C88423A447B
:104880000AEB030E06D02DE01EF8010F12F8011FEF
:10489000884227D101339C42F6D8019BC84519466E
:1048A00040F28380EA1800980378B85C83423A4467
:1048B0007BD1009B0AEB090B06E013F801CD12F83F
:1048C00001EDF44504D101465B4501F1FF30F4D11F
:1048D00009F10109894557D8039B30461D44C3EBB4
:1048E0000409B7E7C8F1010215441D444FF000095F
:1048F0003046AFE7C8EB0403434538BF43460133B6
:1049000008F1FF39039306EB090358460025BB461F
:104910009A4667193A1A0021584400F091F8002885
:104920007FF47DAF002F3FF47AAF444515D908EBF3
:10493000050216F808301BF8020098425A4406EBAC
:104940000801434606D023E011F801EF12F8010FE9
:1049500086451DD101339C42F6D8B9F1FF3F12D0F4
:1049600005EB09029AF800101BF8023099425A44EC
:1049700014D1534605E013F8010D12F8011D8842C9
:104980000CD1B342F7D15F46781905B0BDE8F08F7E
:10499000C8F1010215441D443846BAE7039B384666
:1049A0001D44B6E70B7813B97047414690E70020E5
:1049B000704700BFF0B5DFF878E0164604460F46B2
:1049C000BEE80F008BB06D460FC5BEE80F000FC5E7
:1049D0009EE80300B31E45F8040B222B297022D851
:1049E0007D1E2846002200E01A46B4FBF6F10AAB11
:1049F00006FB114423440C4613F8283C00F8013F01
:104A0000531C0029F0D1F954BB184AB1197815F894
:104A1000010F29700134111B8C4203F80109F5DBE9
:104A200038460BB0F0BD002038700BB0F0BD00BFB1
:104A300060500008000000000000000000000000BE
:104A400001F0FF01102A2BDB10F0070F08D010F83F
:104A5000013B013A8B422DD010F0070F42B3F6D143
:104A6000F0B441EA012141EA014122F007047FF05C
:104A700000070023F0E80256083C85EA010586EAB3
:104A8000010685FA47F5A3FA87F586FA47F6A5FAEF
:104A900087F68EB9EED1F0BC01F0FF0102F00702FB
:104AA00032B110F8013B013A83EA010313B1F8D1A6
:104AB0000020704701387047002D06BF3546033887
:104AC000073815F0010F07D1013015F4807F02BFC0
:104AD000013015F4C03F0130F0BC0138704700BF11
:104AE000032A70B426D940EA01039B0711D0047849
:104AF0000D78AC4222D10244431C05E013F8014B6F
:104B000011F8015FAC4219D19342F7D1002070BC7B
:104B100070470C4603461E682568AE42184621467B
:104B200003F1040304F10404E1D1043A032A184612
:104B30002146F0D8002ADAD11046E8E7601B70BCA5
:104B4000704700BF70B411F0FF0434D085070FD058
:104B50000378002B5AD09C422BD0431C05E013F85D
:104B6000012B002A4FD0944223D09A071846F6D141
:104B70000E0206F47F462643036846EA064601E035
:104B800050F8043F86EA0305A5F10132A3F1013193
:104B900022EA050221EA0303134313F0803FEFD01A
:104BA000037823B932E010F8013F002B2ED09C424D
:104BB000F9D170BC704784070BD00378002BF8D074
:104BC000431C03E002780133002AF2D0990718460B
:104BD000F8D10268A2F1013323EA020313F0803F07
:104BE00008D150F8042FA2F1013323EA020313F095
:104BF000803FF6D00378002BDBD010F8013F002B6C
:104C0000FBD170BC7047104670BC7047184670BC32
:104C1000704700BF3F000000303132333435363743
:104C200038394142434445460A0D6D7574657863D1
:104C30007265617465206572726F723D00000000DC
:104C40000A0D00000A0D666C616763726561746528
:104C5000206572726F723D000D0A53746172742088
:104C60004C4F52415F696E69742E2E2E0D0A000062
:104C70000D0A696E697420646F6E652E2E2E0D0A02
:104C8000000000000D0A4C4F524120646F6E652EEB
:104C90002E2E0D0A0000000075635F70726F6A654A
:104CA000637400000D0A7072696E74204C4F52419B
:104CB0005F636F6D62696E653A20000075432F4F28
:104CC000532D494920577269746520746F204C6FC9
:104CD00072613A20000000006F6B00004C4F52419F
:104CE00020726573706F6E63653A200000000100EA
:104CF00002000100030001000200010004000100A5
:104D00000200010003000100020001000500010093
:104D10000200010003000100020001000400010084
:104D20000200010003000100020001000600010072
:104D30000200010003000100020001000400010064
:104D40000200010003000100020001000500010053
:104D50000200010003000100020001000400010044
:104D60000200010003000100020001000700010031
:104D70000200010003000100020001000400010024
:104D80000200010003000100020001000500010013
:104D90000200010003000100020001000400010004
:104DA00002000100030001000200010006000100F2
:104DB00002000100030001000200010004000100E4
:104DC00002000100030001000200010005000100D3
:104DD00002000100030001000200010004000100C4
:104DE00002000100030001000200010075432F4F83
:104DF000532D49492049646C6500000073797300A4
:104E000067657400687765756900000072616469A0
:104E10006F000000727800006D6163006A6F696E58
:104E200000000000736176650000000074780000E7
:104E3000756E636E6600000070617573650000003A
:104E4000726573756D65000064657665756900004F
:104E5000617070657569000073746174757300002A
:104E60006368000064657661646472007365740051
:104E70006170706B65790000617070736B657900AB
:104E80006E776B736B6579000D0A64656661756C8E
:104E900074206572726F7220676F743A2000000090
:104EA000616270006F746161000000000D0A676547
:104EB00074206465765F6164647220676F743A2061
:104EC0000000000032363031313345390000000037
:104ED0000D0A6465765F6164647220676F743A20BE
:104EE0000000000036374237453834394442313704
:104EF00045444141453443363143303936383744EF
:104F0000464435380000000073657420617070738A
:104F10006B657920676F743A200000004244373790
:104F200031384442304345354638464435364245AB
:104F300046383039444333384133354500000000AA
:104F4000736574206E776B736B657920676F743A45
:104F5000200000007361766520676F743A200000BE
:104F60006465765F65756920676F743A200000009C
:104F70000D0A73747273747228736176652C204CF9
:104F80004F4B29203D2000007365742064657665D1
:104F9000756920676F743A20000000003730423393
:104FA0004435374544303030373935430000000050
:104FB0007365742061707065756920676F743A203D
:104FC0000000000036344232313030463938433147
:104FD0004134454137323741464135303744443812
:104FE0003642424600000000736574206170706BA9
:104FF000657920676F743A20000000000D0A6A6F1F
:10500000696E20676F743A20000000006B65797349
:105010005F6E6F745F696E69740000000D0A676FE0
:1050200074206572726F723A2000000061636365DC
:1050300070746564000000000D0A70627566666534
:10504000723A200075432F4F532D49492054617304
:105050006B2072656369657665643A200000000024
:1050600030313233343536373839616263646566DE
:105070006768696A6B6C6D6E6F7071727374757648
:085080007778797A0000000046
:1050880049380008400900200E00000064000000B4
:10509800010000009D380008000300200F000000F8
:1050A80064000000010000006912000820060020CA
:1050B8000C0000006400000001000000BD120008A0
:1050C800900400200D0000006400000001000000B2
:1050D80000000000000000000000000000000000C8
:1050E80000000000984C0008FFFF000000000000CE
:0C50F8000102030401020304060708097A
:0400000508000000EF
:00000001FF
